{
  "_format": "hh-sol-artifact-1",
  "contractName": "BicycleHire",
  "sourceName": "contracts/BicycleHire.sol",
  "abi": [
    {
      "inputs": [],
      "stateMutability": "nonpayable",
      "type": "constructor"
    },
    {
      "inputs": [
        {
          "internalType": "address payable",
          "name": "_walletAddress",
          "type": "address"
        },
        {
          "internalType": "string",
          "name": "_firstName",
          "type": "string"
        },
        {
          "internalType": "string",
          "name": "_lastName",
          "type": "string"
        },
        {
          "internalType": "bool",
          "name": "_canRent",
          "type": "bool"
        },
        {
          "internalType": "bool",
          "name": "_active",
          "type": "bool"
        },
        {
          "internalType": "uint256",
          "name": "_balance",
          "type": "uint256"
        },
        {
          "internalType": "uint256",
          "name": "_due",
          "type": "uint256"
        },
        {
          "internalType": "uint256",
          "name": "_startTime",
          "type": "uint256"
        },
        {
          "internalType": "uint256",
          "name": "_endTime",
          "type": "uint256"
        }
      ],
      "name": "addRenter",
      "outputs": [],
      "stateMutability": "nonpayable",
      "type": "function"
    },
    {
      "inputs": [
        {
          "internalType": "address",
          "name": "_walletAddress",
          "type": "address"
        }
      ],
      "name": "balanceOfRenter",
      "outputs": [
        {
          "internalType": "uint256",
          "name": "",
          "type": "uint256"
        }
      ],
      "stateMutability": "view",
      "type": "function"
    },
    {
      "inputs": [
        {
          "internalType": "address",
          "name": "_walletAddress",
          "type": "address"
        }
      ],
      "name": "canRentBike",
      "outputs": [
        {
          "internalType": "bool",
          "name": "",
          "type": "bool"
        }
      ],
      "stateMutability": "view",
      "type": "function"
    },
    {
      "inputs": [
        {
          "internalType": "address",
          "name": "_walletAddress",
          "type": "address"
        }
      ],
      "name": "checkIn",
      "outputs": [],
      "stateMutability": "nonpayable",
      "type": "function"
    },
    {
      "inputs": [
        {
          "internalType": "address",
          "name": "_walletAddress",
          "type": "address"
        }
      ],
      "name": "checkOut",
      "outputs": [],
      "stateMutability": "nonpayable",
      "type": "function"
    },
    {
      "inputs": [
        {
          "internalType": "address",
          "name": "_walletAddress",
          "type": "address"
        }
      ],
      "name": "deposit",
      "outputs": [],
      "stateMutability": "payable",
      "type": "function"
    },
    {
      "inputs": [],
      "name": "getBalanceOf",
      "outputs": [
        {
          "internalType": "uint256",
          "name": "",
          "type": "uint256"
        }
      ],
      "stateMutability": "view",
      "type": "function"
    },
    {
      "inputs": [
        {
          "internalType": "address",
          "name": "_walletAddress",
          "type": "address"
        }
      ],
      "name": "getDue",
      "outputs": [
        {
          "internalType": "uint256",
          "name": "",
          "type": "uint256"
        }
      ],
      "stateMutability": "view",
      "type": "function"
    },
    {
      "inputs": [],
      "name": "getOwnerBalance",
      "outputs": [
        {
          "internalType": "uint256",
          "name": "",
          "type": "uint256"
        }
      ],
      "stateMutability": "view",
      "type": "function"
    },
    {
      "inputs": [
        {
          "internalType": "address",
          "name": "_walletAddress",
          "type": "address"
        }
      ],
      "name": "getRenter",
      "outputs": [
        {
          "internalType": "string",
          "name": "firstName",
          "type": "string"
        },
        {
          "internalType": "string",
          "name": "lastName",
          "type": "string"
        },
        {
          "internalType": "bool",
          "name": "canRent",
          "type": "bool"
        },
        {
          "internalType": "bool",
          "name": "active",
          "type": "bool"
        }
      ],
      "stateMutability": "view",
      "type": "function"
    },
    {
      "inputs": [
        {
          "internalType": "address",
          "name": "_walletAddress",
          "type": "address"
        }
      ],
      "name": "getTotalDuration",
      "outputs": [
        {
          "internalType": "uint256",
          "name": "",
          "type": "uint256"
        }
      ],
      "stateMutability": "view",
      "type": "function"
    },
    {
      "inputs": [
        {
          "internalType": "address",
          "name": "_walletAddress",
          "type": "address"
        },
        {
          "internalType": "uint256",
          "name": "_amount",
          "type": "uint256"
        }
      ],
      "name": "makePayment",
      "outputs": [],
      "stateMutability": "nonpayable",
      "type": "function"
    },
    {
      "inputs": [
        {
          "internalType": "address",
          "name": "_walletAddress",
          "type": "address"
        }
      ],
      "name": "renterExists",
      "outputs": [
        {
          "internalType": "bool",
          "name": "",
          "type": "bool"
        }
      ],
      "stateMutability": "view",
      "type": "function"
    },
    {
      "inputs": [
        {
          "internalType": "address",
          "name": "",
          "type": "address"
        }
      ],
      "name": "renters",
      "outputs": [
        {
          "internalType": "address payable",
          "name": "_walletAddress",
          "type": "address"
        },
        {
          "internalType": "string",
          "name": "firstName",
          "type": "string"
        },
        {
          "internalType": "string",
          "name": "lastName",
          "type": "string"
        },
        {
          "internalType": "bool",
          "name": "canRent",
          "type": "bool"
        },
        {
          "internalType": "bool",
          "name": "active",
          "type": "bool"
        },
        {
          "internalType": "uint256",
          "name": "balance",
          "type": "uint256"
        },
        {
          "internalType": "uint256",
          "name": "due",
          "type": "uint256"
        },
        {
          "internalType": "uint256",
          "name": "startTime",
          "type": "uint256"
        },
        {
          "internalType": "uint256",
          "name": "endTime",
          "type": "uint256"
        }
      ],
      "stateMutability": "view",
      "type": "function"
    },
    {
      "inputs": [],
      "name": "withdrawOwnerBalance",
      "outputs": [],
      "stateMutability": "payable",
      "type": "function"
    }
  ],
  "bytecode": "0x608060405234801561001057600080fd5b50336000806101000a81548173ffffffffffffffffffffffffffffffffffffffff021916908373ffffffffffffffffffffffffffffffffffffffff160217905550612783806100606000396000f3fe6080604052600436106100e85760003560e01c8063941b80ac1161008a578063ecbde5e611610059578063ecbde5e614610316578063f340fa0114610341578063f98cf07c1461035d578063f9d8241c14610386576100e8565b8063941b80ac14610269578063aad1b61714610273578063c6d2a846146102b0578063d9a59e33146102ed576100e8565b80635e649727116100c65780635e64972714610192578063644a1370146101bb5780636a4b27f4146102005780638d23caa014610240576100e8565b80630b88adbe146100ed57806341ba6e891461012a578063590791f214610167575b600080fd5b3480156100f957600080fd5b50610114600480360381019061010f9190611a41565b6103c3565b6040516101219190611a89565b60405180910390f35b34801561013657600080fd5b50610151600480360381019061014c9190611a41565b61048c565b60405161015e9190611abd565b60405180910390f35b34801561017357600080fd5b5061017c61064d565b6040516101899190611abd565b60405180910390f35b34801561019e57600080fd5b506101b960048036038101906101b49190611cb4565b6106e6565b005b3480156101c757600080fd5b506101e260048036038101906101dd9190611a41565b610869565b6040516101f799989796959493929190611e44565b60405180910390f35b34801561020c57600080fd5b5061022760048036038101906102229190611a41565b610a01565b6040516102379493929190611edf565b60405180910390f35b34801561024c57600080fd5b5061026760048036038101906102629190611a41565b610cbc565b005b610271610f47565b005b34801561027f57600080fd5b5061029a60048036038101906102959190611a41565b610fb2565b6040516102a79190611abd565b60405180910390f35b3480156102bc57600080fd5b506102d760048036038101906102d29190611a41565b61106e565b6040516102e49190611abd565b60405180910390f35b3480156102f957600080fd5b50610314600480360381019061030f9190611a41565b61112a565b005b34801561032257600080fd5b5061032b6112d6565b6040516103389190611abd565b60405180910390f35b61035b60048036038101906103569190611a41565b61136d565b005b34801561036957600080fd5b50610384600480360381019061037f9190611f32565b611439565b005b34801561039257600080fd5b506103ad60048036038101906103a89190611a41565b611822565b6040516103ba9190611a89565b60405180910390f35b6000818073ffffffffffffffffffffffffffffffffffffffff163373ffffffffffffffffffffffffffffffffffffffff1614610434576040517f08c379a000000000000000000000000000000000000000000000000000000000815260040161042b90611fbe565b60405180910390fd5b600260008473ffffffffffffffffffffffffffffffffffffffff1673ffffffffffffffffffffffffffffffffffffffff16815260200190815260200160002060030160009054906101000a900460ff16915050919050565b6000818073ffffffffffffffffffffffffffffffffffffffff163373ffffffffffffffffffffffffffffffffffffffff16146104fd576040517f08c379a00000000000000000000000000000000000000000000000000000000081526004016104f490611fbe565b60405180910390fd5b6000600260008573ffffffffffffffffffffffffffffffffffffffff1673ffffffffffffffffffffffffffffffffffffffff16815260200190815260200160002060060154148061059057506000600260008573ffffffffffffffffffffffffffffffffffffffff1673ffffffffffffffffffffffffffffffffffffffff16815260200190815260200160002060070154145b1561059e5760009150610647565b600061062e600260008673ffffffffffffffffffffffffffffffffffffffff1673ffffffffffffffffffffffffffffffffffffffff16815260200190815260200160002060060154600260008773ffffffffffffffffffffffffffffffffffffffff1673ffffffffffffffffffffffffffffffffffffffff1681526020019081526020016000206007015461193d565b90506000603c8261063f919061203c565b905080935050505b50919050565b60008060009054906101000a900473ffffffffffffffffffffffffffffffffffffffff1673ffffffffffffffffffffffffffffffffffffffff163373ffffffffffffffffffffffffffffffffffffffff16146106de576040517f08c379a00000000000000000000000000000000000000000000000000000000081526004016106d5906120b9565b60405180910390fd5b600154905090565b6040518061012001604052808a73ffffffffffffffffffffffffffffffffffffffff1681526020018981526020018881526020018715158152602001861515815260200185815260200184815260200183815260200182815250600260008b73ffffffffffffffffffffffffffffffffffffffff1673ffffffffffffffffffffffffffffffffffffffff16815260200190815260200160002060008201518160000160006101000a81548173ffffffffffffffffffffffffffffffffffffffff021916908373ffffffffffffffffffffffffffffffffffffffff16021790555060208201518160010190816107db91906122e5565b5060408201518160020190816107f191906122e5565b5060608201518160030160006101000a81548160ff02191690831515021790555060808201518160030160016101000a81548160ff02191690831515021790555060a0820151816004015560c0820151816005015560e082015181600601556101008201518160070155905050505050505050505050565b60026020528060005260406000206000915090508060000160009054906101000a900473ffffffffffffffffffffffffffffffffffffffff16908060010180546108b290612108565b80601f01602080910402602001604051908101604052809291908181526020018280546108de90612108565b801561092b5780601f106109005761010080835404028352916020019161092b565b820191906000526020600020905b81548152906001019060200180831161090e57829003601f168201915b50505050509080600201805461094090612108565b80601f016020809104026020016040519081016040528092919081815260200182805461096c90612108565b80156109b95780601f1061098e576101008083540402835291602001916109b9565b820191906000526020600020905b81548152906001019060200180831161099c57829003601f168201915b5050505050908060030160009054906101000a900460ff16908060030160019054906101000a900460ff16908060040154908060050154908060060154908060070154905089565b606080600080848073ffffffffffffffffffffffffffffffffffffffff163373ffffffffffffffffffffffffffffffffffffffff1614610a76576040517f08c379a0000000000000000000000000000000000000000000000000000000008152600401610a6d90611fbe565b60405180910390fd5b600260008773ffffffffffffffffffffffffffffffffffffffff1673ffffffffffffffffffffffffffffffffffffffff1681526020019081526020016000206001018054610ac390612108565b80601f0160208091040260200160405190810160405280929190818152602001828054610aef90612108565b8015610b3c5780601f10610b1157610100808354040283529160200191610b3c565b820191906000526020600020905b815481529060010190602001808311610b1f57829003601f168201915b50505050509450600260008773ffffffffffffffffffffffffffffffffffffffff1673ffffffffffffffffffffffffffffffffffffffff1681526020019081526020016000206002018054610b9090612108565b80601f0160208091040260200160405190810160405280929190818152602001828054610bbc90612108565b8015610c095780601f10610bde57610100808354040283529160200191610c09565b820191906000526020600020905b815481529060010190602001808311610bec57829003601f168201915b50505050509350600260008773ffffffffffffffffffffffffffffffffffffffff1673ffffffffffffffffffffffffffffffffffffffff16815260200190815260200160002060030160009054906101000a900460ff169250600260008773ffffffffffffffffffffffffffffffffffffffff1673ffffffffffffffffffffffffffffffffffffffff16815260200190815260200160002060030160019054906101000a900460ff169150509193509193565b808073ffffffffffffffffffffffffffffffffffffffff163373ffffffffffffffffffffffffffffffffffffffff1614610d2b576040517f08c379a0000000000000000000000000000000000000000000000000000000008152600401610d2290611fbe565b60405180910390fd5b6000600260008473ffffffffffffffffffffffffffffffffffffffff1673ffffffffffffffffffffffffffffffffffffffff1681526020019081526020016000206005015414610db0576040517f08c379a0000000000000000000000000000000000000000000000000000000008152600401610da790612403565b60405180910390fd5b60011515600260008473ffffffffffffffffffffffffffffffffffffffff1673ffffffffffffffffffffffffffffffffffffffff16815260200190815260200160002060030160009054906101000a900460ff16151514610e46576040517f08c379a0000000000000000000000000000000000000000000000000000000008152600401610e3d9061246f565b60405180910390fd5b6001600260008473ffffffffffffffffffffffffffffffffffffffff1673ffffffffffffffffffffffffffffffffffffffff16815260200190815260200160002060030160016101000a81548160ff02191690831515021790555042600260008473ffffffffffffffffffffffffffffffffffffffff1673ffffffffffffffffffffffffffffffffffffffff168152602001908152602001600020600601819055506000600260008473ffffffffffffffffffffffffffffffffffffffff1673ffffffffffffffffffffffffffffffffffffffff16815260200190815260200160002060030160006101000a81548160ff0219169083151502179055505050565b60008054906101000a900473ffffffffffffffffffffffffffffffffffffffff1673ffffffffffffffffffffffffffffffffffffffff166108fc6001549081150290604051600060405180830381858888f19350505050158015610faf573d6000803e3d6000fd5b50565b6000818073ffffffffffffffffffffffffffffffffffffffff163373ffffffffffffffffffffffffffffffffffffffff1614611023576040517f08c379a000000000000000000000000000000000000000000000000000000000815260040161101a90611fbe565b60405180910390fd5b600260008473ffffffffffffffffffffffffffffffffffffffff1673ffffffffffffffffffffffffffffffffffffffff16815260200190815260200160002060040154915050919050565b6000818073ffffffffffffffffffffffffffffffffffffffff163373ffffffffffffffffffffffffffffffffffffffff16146110df576040517f08c379a00000000000000000000000000000000000000000000000000000000081526004016110d690611fbe565b60405180910390fd5b600260008473ffffffffffffffffffffffffffffffffffffffff1673ffffffffffffffffffffffffffffffffffffffff16815260200190815260200160002060050154915050919050565b808073ffffffffffffffffffffffffffffffffffffffff163373ffffffffffffffffffffffffffffffffffffffff1614611199576040517f08c379a000000000000000000000000000000000000000000000000000000000815260040161119090611fbe565b60405180910390fd5b60011515600260008473ffffffffffffffffffffffffffffffffffffffff1673ffffffffffffffffffffffffffffffffffffffff16815260200190815260200160002060030160019054906101000a900460ff1615151461122f576040517f08c379a0000000000000000000000000000000000000000000000000000000008152600401611226906124db565b60405180910390fd5b60001515600260008473ffffffffffffffffffffffffffffffffffffffff1673ffffffffffffffffffffffffffffffffffffffff16815260200190815260200160002060030160019054906101000a9050505042600260008473ffffffffffffffffffffffffffffffffffffffff1673ffffffffffffffffffffffffffffffffffffffff168152602001908152602001600020600701819055506112d282611953565b5050565b60008060009054906101000a900473ffffffffffffffffffffffffffffffffffffffff1673ffffffffffffffffffffffffffffffffffffffff163373ffffffffffffffffffffffffffffffffffffffff1614611367576040517f08c379a000000000000000000000000000000000000000000000000000000000815260040161135e906120b9565b60405180910390fd5b47905090565b808073ffffffffffffffffffffffffffffffffffffffff163373ffffffffffffffffffffffffffffffffffffffff16146113dc576040517f08c379a00000000000000000000000000000000000000000000000000000000081526004016113d390611fbe565b60405180910390fd5b34600260008473ffffffffffffffffffffffffffffffffffffffff1673ffffffffffffffffffffffffffffffffffffffff168152602001908152602001600020600401600082825461142e91906124fb565b925050819055505050565b818073ffffffffffffffffffffffffffffffffffffffff163373ffffffffffffffffffffffffffffffffffffffff16146114a8576040517f08c379a000000000000000000000000000000000000000000000000000000000815260040161149f90611fbe565b60405180910390fd5b6000600260008573ffffffffffffffffffffffffffffffffffffffff1673ffffffffffffffffffffffffffffffffffffffff168152602001908152602001600020600501541161152d576040517f08c379a00000000000000000000000000000000000000000000000000000000081526004016115249061257b565b60405180910390fd5b81600260008573ffffffffffffffffffffffffffffffffffffffff1673ffffffffffffffffffffffffffffffffffffffff16815260200190815260200160002060050154146115b1576040517f08c379a00000000000000000000000000000000000000000000000000000000081526004016115a8906125e7565b60405180910390fd5b81600260008573ffffffffffffffffffffffffffffffffffffffff1673ffffffffffffffffffffffffffffffffffffffff168152602001908152602001600020600401541015611636576040517f08c379a000000000000000000000000000000000000000000000000000000000815260040161162d9061269f565b60405180910390fd5b81600260008573ffffffffffffffffffffffffffffffffffffffff1673ffffffffffffffffffffffffffffffffffffffff168152602001908152602001600020600401600082825461168891906126bf565b925050819055506001600260008573ffffffffffffffffffffffffffffffffffffffff1673ffffffffffffffffffffffffffffffffffffffff16815260200190815260200160002060030160006101000a81548160ff0219169083151502179055506000600260008573ffffffffffffffffffffffffffffffffffffffff1673ffffffffffffffffffffffffffffffffffffffff16815260200190815260200160002060030160016101000a81548160ff0219169083151502179055506000600260008573ffffffffffffffffffffffffffffffffffffffff1673ffffffffffffffffffffffffffffffffffffffff168152602001908152602001600020600501819055506000600260008573ffffffffffffffffffffffffffffffffffffffff1673ffffffffffffffffffffffffffffffffffffffff168152602001908152602001600020600601819055506000600260008573ffffffffffffffffffffffffffffffffffffffff1673ffffffffffffffffffffffffffffffffffffffff16815260200190815260200160002060070181905550505050565b6000818073ffffffffffffffffffffffffffffffffffffffff163373ffffffffffffffffffffffffffffffffffffffff1614611893576040517f08c379a000000000000000000000000000000000000000000000000000000000815260040161188a90611fbe565b60405180910390fd5b600073ffffffffffffffffffffffffffffffffffffffff16600260008573ffffffffffffffffffffffffffffffffffffffff1673ffffffffffffffffffffffffffffffffffffffff16815260200190815260200160002060000160009054906101000a900473ffffffffffffffffffffffffffffffffffffffff1673ffffffffffffffffffffffffffffffffffffffff16146119325760019150611937565b600091505b50919050565b6000828261194b91906126bf565b905092915050565b600061195e8261048c565b90506000601e8261196f919061203c565b905066071afd498d00008161198491906126f3565b600260008573ffffffffffffffffffffffffffffffffffffffff1673ffffffffffffffffffffffffffffffffffffffff16815260200190815260200160002060050181905550505050565b6000604051905090565b600080fd5b600080fd5b600073ffffffffffffffffffffffffffffffffffffffff82169050919050565b6000611a0e826119e3565b9050919050565b611a1e81611a03565b8114611a2957600080fd5b50565b600081359050611a3b81611a15565b92915050565b600060208284031215611a5757611a566119d9565b5b6000611a6584828501611a2c565b91505092915050565b60008115159050919050565b611a8381611a6e565b82525050565b6000602082019050611a9e6000830184611a7a565b92915050565b6000819050919050565b611ab781611aa4565b82525050565b6000602082019050611ad26000830184611aae565b92915050565b6000611ae3826119e3565b9050919050565b611af381611ad8565b8114611afe57600080fd5b50565b600081359050611b1081611aea565b92915050565b600080fd5b600080fd5b6000601f19601f8301169050919050565b7f4e487b7100000000000000000000000000000000000000000000000000000000600052604160045260246000fd5b611b6982611b20565b810181811067ffffffffffffffff82111715611b8857611b87611b31565b5b80604052505050565b6000611b9b6119cf565b9050611ba78282611b60565b919050565b600067ffffffffffffffff821115611bc757611bc6611b31565b5b611bd082611b20565b9050602081019050919050565b82818337600083830152505050565b6000611bff611bfa84611bac565b611b91565b905082815260208101848484011115611c1b57611c1a611b1b565b5b611c26848285611bdd565b509392505050565b600082601f830112611c4357611c42611b16565b5b8135611c53848260208601611bec565b91505092915050565b611c6581611a6e565b8114611c7057600080fd5b50565b600081359050611c8281611c5c565b92915050565b611c9181611aa4565b8114611c9c57600080fd5b50565b600081359050611cae81611c88565b92915050565b60008060008060008060008060006101208a8c031215611cd757611cd66119d9565b5b6000611ce58c828d01611b01565b99505060208a013567ffffffffffffffff811115611d0657611d056119de565b5b611d128c828d01611c2e565b98505060408a013567ffffffffffffffff811115611d3357611d326119de565b5b611d3f8c828d01611c2e565b9750506060611d508c828d01611c73565b9650506080611d618c828d01611c73565b95505060a0611d728c828d01611c9f565b94505060c0611d838c828d01611c9f565b93505060e0611d948c828d01611c9f565b925050610100611da68c828d01611c9f565b9150509295985092959850929598565b611dbf81611ad8565b82525050565b600081519050919050565b600082825260208201905092915050565b60005b83811015611dff578082015181840152602081019050611de4565b60008484015250505050565b6000611e1682611dc5565b611e208185611dd0565b9350611e30818560208601611de1565b611e3981611b20565b840191505092915050565b600061012082019050611e5a600083018c611db6565b8181036020830152611e6c818b611e0b565b90508181036040830152611e80818a611e0b565b9050611e8f6060830189611a7a565b611e9c6080830188611a7a565b611ea960a0830187611aae565b611eb660c0830186611aae565b611ec360e0830185611aae565b611ed1610100830184611aae565b9a9950505050505050505050565b60006080820190508181036000830152611ef98187611e0b565b90508181036020830152611f0d8186611e0b565b9050611f1c6040830185611a7a565b611f296060830184611a7a565b95945050505050565b60008060408385031215611f4957611f486119d9565b5b6000611f5785828601611a2c565b9250506020611f6885828601611c9f565b9150509250929050565b7f596f752063616e206f6e6c79206d616e61676520796f7572206163636f756e74600082015250565b6000611fa8602083611dd0565b9150611fb382611f72565b602082019050919050565b60006020820190508181036000830152611fd781611f9b565b9050919050565b7f4e487b7100000000000000000000000000000000000000000000000000000000600052601260045260246000fd5b7f4e487b7100000000000000000000000000000000000000000000000000000000600052601160045260246000fd5b600061204782611aa4565b915061205283611aa4565b92508261206257612061611fde565b5b828204905092915050565b7f596f7520646f206e6f742068617665207065726d697373696f6e000000000000600082015250565b60006120a3601a83611dd0565b91506120ae8261206d565b602082019050919050565b600060208201905081810360008301526120d281612096565b9050919050565b7f4e487b7100000000000000000000000000000000000000000000000000000000600052602260045260246000fd5b6000600282049050600182168061212057607f821691505b602082108103612133576121326120d9565b5b50919050565b60008190508160005260206000209050919050565b60006020601f8301049050919050565b600082821b905092915050565b60006008830261219b7fffffffffffffffffffffffffffffffffffffffffffffffffffffffffffffffff8261215e565b6121a5868361215e565b95508019841693508086168417925050509392505050565b6000819050919050565b60006121e26121dd6121d884611aa4565b6121bd565b611aa4565b9050919050565b6000819050919050565b6121fc836121c7565b612210612208826121e9565b84845461216b565b825550505050565b600090565b612225612218565b6122308184846121f3565b505050565b5b818110156122545761224960008261221d565b600181019050612236565b5050565b601f8211156122995761226a81612139565b6122738461214e565b81016020851015612282578190505b61229661228e8561214e565b830182612235565b50505b505050565b600082821c905092915050565b60006122bc6000198460080261229e565b1980831691505092915050565b60006122d583836122ab565b9150826002028217905092915050565b6122ee82611dc5565b67ffffffffffffffff81111561230757612306611b31565b5b6123118254612108565b61231c828285612258565b600060209050601f83116001811461234f576000841561233d578287015190505b61234785826122c9565b8655506123af565b601f19841661235d86612139565b60005b8281101561238557848901518255600182019150602085019450602081019050612360565b868310156123a2578489015161239e601f8916826122ab565b8355505b6001600288020188555050505b505050505050565b7f596f75206861766520612070656e64696e672062616c616e6365000000000000600082015250565b60006123ed601a83611dd0565b91506123f8826123b7565b602082019050919050565b6000602082019050818103600083015261241c816123e0565b9050919050565b7f596f752063616e6e6f742072656e7420617420746869732074696d6500000000600082015250565b6000612459601c83611dd0565b915061246482612423565b602082019050919050565b600060208201905081810360008301526124888161244c565b9050919050565b7f506c6561736520636865636b6f757420612062696b6520666972737400000000600082015250565b60006124c5601c83611dd0565b91506124d08261248f565b602082019050919050565b600060208201905081810360008301526124f4816124b8565b9050919050565b600061250682611aa4565b915061251183611aa4565b92508282019050808211156125295761252861200d565b5b92915050565b7f4e6f7468696e6720697320647565000000000000000000000000000000000000600082015250565b6000612565600e83611dd0565b91506125708261252f565b602082019050919050565b6000602082019050818103600083015261259481612558565b9050919050565b7f506c6561736520696e7075742074686520636f727265637420616d6f756e7400600082015250565b60006125d1601f83611dd0565b91506125dc8261259b565b602082019050919050565b60006020820190508181036000830152612600816125c4565b9050919050565b7f596f7520646f206e6f74206861766520656e6f7567682066756e647320746f2060008201527f636f766572207061796d656e742e20506c65617365206d616b6520612064657060208201527f6f73697400000000000000000000000000000000000000000000000000000000604082015250565b6000612689604483611dd0565b915061269482612607565b606082019050919050565b600060208201905081810360008301526126b88161267c565b9050919050565b60006126ca82611aa4565b91506126d583611aa4565b92508282039050818111156126ed576126ec61200d565b5b92915050565b60006126fe82611aa4565b915061270983611aa4565b9250817fffffffffffffffffffffffffffffffffffffffffffffffffffffffffffffffff04831182151516156127425761274161200d565b5b82820290509291505056fea26469706673582212207c223764fa87476978fd8350187717df769174d269bb1c27cf63772b5fd7045864736f6c63430008100033",
  "linkReferences": {},
  "deployedLinkReferences": {}
}